{
  "_format": "hh-sol-artifact-1",
  "contractName": "MentorshipNFT",
  "sourceName": "src/contracts/MentorshipNFT.sol",
  "abi": [
    {
      "inputs": [],
      "stateMutability": "nonpayable",
      "type": "constructor"
    },
    {
      "anonymous": false,
      "inputs": [
        {
          "indexed": true,
          "internalType": "uint256",
          "name": "tokenId",
          "type": "uint256"
        },
        {
          "indexed": true,
          "internalType": "address",
          "name": "student",
          "type": "address"
        },
        {
          "indexed": false,
          "internalType": "string",
          "name": "title",
          "type": "string"
        },
        {
          "indexed": false,
          "internalType": "uint256",
          "name": "sessionId",
          "type": "uint256"
        },
        {
          "indexed": false,
          "internalType": "address",
          "name": "mentor",
          "type": "address"
        }
      ],
      "name": "AchievementMinted",
      "type": "event"
    },
    {
      "anonymous": false,
      "inputs": [
        {
          "indexed": true,
          "internalType": "address",
          "name": "owner",
          "type": "address"
        },
        {
          "indexed": true,
          "internalType": "address",
          "name": "approved",
          "type": "address"
        },
        {
          "indexed": true,
          "internalType": "uint256",
          "name": "tokenId",
          "type": "uint256"
        }
      ],
      "name": "Approval",
      "type": "event"
    },
    {
      "anonymous": false,
      "inputs": [
        {
          "indexed": true,
          "internalType": "address",
          "name": "owner",
          "type": "address"
        },
        {
          "indexed": true,
          "internalType": "address",
          "name": "operator",
          "type": "address"
        },
        {
          "indexed": false,
          "internalType": "bool",
          "name": "approved",
          "type": "bool"
        }
      ],
      "name": "ApprovalForAll",
      "type": "event"
    },
    {
      "anonymous": false,
      "inputs": [
        {
          "indexed": true,
          "internalType": "address",
          "name": "previousOwner",
          "type": "address"
        },
        {
          "indexed": true,
          "internalType": "address",
          "name": "newOwner",
          "type": "address"
        }
      ],
      "name": "OwnershipTransferred",
      "type": "event"
    },
    {
      "anonymous": false,
      "inputs": [
        {
          "indexed": true,
          "internalType": "address",
          "name": "from",
          "type": "address"
        },
        {
          "indexed": true,
          "internalType": "address",
          "name": "to",
          "type": "address"
        },
        {
          "indexed": true,
          "internalType": "uint256",
          "name": "tokenId",
          "type": "uint256"
        }
      ],
      "name": "Transfer",
      "type": "event"
    },
    {
      "inputs": [
        {
          "internalType": "uint256",
          "name": "",
          "type": "uint256"
        }
      ],
      "name": "achievements",
      "outputs": [
        {
          "internalType": "string",
          "name": "title",
          "type": "string"
        },
        {
          "internalType": "string",
          "name": "description",
          "type": "string"
        },
        {
          "internalType": "uint256",
          "name": "sessionId",
          "type": "uint256"
        },
        {
          "internalType": "address",
          "name": "mentor",
          "type": "address"
        },
        {
          "internalType": "uint256",
          "name": "timestamp",
          "type": "uint256"
        }
      ],
      "stateMutability": "view",
      "type": "function"
    },
    {
      "inputs": [
        {
          "internalType": "address",
          "name": "to",
          "type": "address"
        },
        {
          "internalType": "uint256",
          "name": "tokenId",
          "type": "uint256"
        }
      ],
      "name": "approve",
      "outputs": [],
      "stateMutability": "nonpayable",
      "type": "function"
    },
    {
      "inputs": [
        {
          "internalType": "address",
          "name": "",
          "type": "address"
        }
      ],
      "name": "authorizedMinters",
      "outputs": [
        {
          "internalType": "bool",
          "name": "",
          "type": "bool"
        }
      ],
      "stateMutability": "view",
      "type": "function"
    },
    {
      "inputs": [
        {
          "internalType": "address",
          "name": "owner",
          "type": "address"
        }
      ],
      "name": "balanceOf",
      "outputs": [
        {
          "internalType": "uint256",
          "name": "",
          "type": "uint256"
        }
      ],
      "stateMutability": "view",
      "type": "function"
    },
    {
      "inputs": [
        {
          "internalType": "uint256",
          "name": "tokenId",
          "type": "uint256"
        }
      ],
      "name": "getAchievement",
      "outputs": [
        {
          "internalType": "string",
          "name": "title",
          "type": "string"
        },
        {
          "internalType": "string",
          "name": "description",
          "type": "string"
        },
        {
          "internalType": "uint256",
          "name": "sessionId",
          "type": "uint256"
        },
        {
          "internalType": "address",
          "name": "mentor",
          "type": "address"
        },
        {
          "internalType": "uint256",
          "name": "timestamp",
          "type": "uint256"
        }
      ],
      "stateMutability": "view",
      "type": "function"
    },
    {
      "inputs": [
        {
          "internalType": "uint256",
          "name": "tokenId",
          "type": "uint256"
        }
      ],
      "name": "getApproved",
      "outputs": [
        {
          "internalType": "address",
          "name": "",
          "type": "address"
        }
      ],
      "stateMutability": "view",
      "type": "function"
    },
    {
      "inputs": [
        {
          "internalType": "address",
          "name": "owner",
          "type": "address"
        },
        {
          "internalType": "address",
          "name": "operator",
          "type": "address"
        }
      ],
      "name": "isApprovedForAll",
      "outputs": [
        {
          "internalType": "bool",
          "name": "",
          "type": "bool"
        }
      ],
      "stateMutability": "view",
      "type": "function"
    },
    {
      "inputs": [
        {
          "internalType": "address",
          "name": "student",
          "type": "address"
        },
        {
          "internalType": "string",
          "name": "title",
          "type": "string"
        },
        {
          "internalType": "string",
          "name": "description",
          "type": "string"
        },
        {
          "internalType": "uint256",
          "name": "sessionId",
          "type": "uint256"
        },
        {
          "internalType": "address",
          "name": "mentor",
          "type": "address"
        }
      ],
      "name": "mintAchievement",
      "outputs": [
        {
          "internalType": "uint256",
          "name": "",
          "type": "uint256"
        }
      ],
      "stateMutability": "nonpayable",
      "type": "function"
    },
    {
      "inputs": [],
      "name": "name",
      "outputs": [
        {
          "internalType": "string",
          "name": "",
          "type": "string"
        }
      ],
      "stateMutability": "view",
      "type": "function"
    },
    {
      "inputs": [],
      "name": "owner",
      "outputs": [
        {
          "internalType": "address",
          "name": "",
          "type": "address"
        }
      ],
      "stateMutability": "view",
      "type": "function"
    },
    {
      "inputs": [
        {
          "internalType": "uint256",
          "name": "tokenId",
          "type": "uint256"
        }
      ],
      "name": "ownerOf",
      "outputs": [
        {
          "internalType": "address",
          "name": "",
          "type": "address"
        }
      ],
      "stateMutability": "view",
      "type": "function"
    },
    {
      "inputs": [],
      "name": "renounceOwnership",
      "outputs": [],
      "stateMutability": "nonpayable",
      "type": "function"
    },
    {
      "inputs": [
        {
          "internalType": "address",
          "name": "from",
          "type": "address"
        },
        {
          "internalType": "address",
          "name": "to",
          "type": "address"
        },
        {
          "internalType": "uint256",
          "name": "tokenId",
          "type": "uint256"
        }
      ],
      "name": "safeTransferFrom",
      "outputs": [],
      "stateMutability": "nonpayable",
      "type": "function"
    },
    {
      "inputs": [
        {
          "internalType": "address",
          "name": "from",
          "type": "address"
        },
        {
          "internalType": "address",
          "name": "to",
          "type": "address"
        },
        {
          "internalType": "uint256",
          "name": "tokenId",
          "type": "uint256"
        },
        {
          "internalType": "bytes",
          "name": "data",
          "type": "bytes"
        }
      ],
      "name": "safeTransferFrom",
      "outputs": [],
      "stateMutability": "nonpayable",
      "type": "function"
    },
    {
      "inputs": [
        {
          "internalType": "address",
          "name": "operator",
          "type": "address"
        },
        {
          "internalType": "bool",
          "name": "approved",
          "type": "bool"
        }
      ],
      "name": "setApprovalForAll",
      "outputs": [],
      "stateMutability": "nonpayable",
      "type": "function"
    },
    {
      "inputs": [
        {
          "internalType": "address",
          "name": "minter",
          "type": "address"
        },
        {
          "internalType": "bool",
          "name": "status",
          "type": "bool"
        }
      ],
      "name": "setMinterRole",
      "outputs": [],
      "stateMutability": "nonpayable",
      "type": "function"
    },
    {
      "inputs": [
        {
          "internalType": "bytes4",
          "name": "interfaceId",
          "type": "bytes4"
        }
      ],
      "name": "supportsInterface",
      "outputs": [
        {
          "internalType": "bool",
          "name": "",
          "type": "bool"
        }
      ],
      "stateMutability": "view",
      "type": "function"
    },
    {
      "inputs": [],
      "name": "symbol",
      "outputs": [
        {
          "internalType": "string",
          "name": "",
          "type": "string"
        }
      ],
      "stateMutability": "view",
      "type": "function"
    },
    {
      "inputs": [
        {
          "internalType": "uint256",
          "name": "tokenId",
          "type": "uint256"
        }
      ],
      "name": "tokenURI",
      "outputs": [
        {
          "internalType": "string",
          "name": "",
          "type": "string"
        }
      ],
      "stateMutability": "view",
      "type": "function"
    },
    {
      "inputs": [
        {
          "internalType": "address",
          "name": "from",
          "type": "address"
        },
        {
          "internalType": "address",
          "name": "to",
          "type": "address"
        },
        {
          "internalType": "uint256",
          "name": "tokenId",
          "type": "uint256"
        }
      ],
      "name": "transferFrom",
      "outputs": [],
      "stateMutability": "nonpayable",
      "type": "function"
    },
    {
      "inputs": [
        {
          "internalType": "address",
          "name": "newOwner",
          "type": "address"
        }
      ],
      "name": "transferOwnership",
      "outputs": [],
      "stateMutability": "nonpayable",
      "type": "function"
    }
  ],
  "bytecode": "0x60806040523480156200001157600080fd5b50604080518082018252601681527f4d656e746f727368697020416368696576656d656e740000000000000000000060208083019182528351808501909452600484526309a8286960e31b908401528151919291620000739160009162000102565b5080516200008990600190602084019062000102565b505050620000a6620000a0620000ac60201b60201c565b620000b0565b620001e5565b3390565b600680546001600160a01b038381166001600160a01b0319831681179093556040519116919082907f8be0079c531659141344cd1fd0a4f28419497f9722a3daafe3b4186f6b6457e090600090a35050565b8280546200011090620001a8565b90600052602060002090601f0160209004810192826200013457600085556200017f565b82601f106200014f57805160ff19168380011785556200017f565b828001600101855582156200017f579182015b828111156200017f57825182559160200191906001019062000162565b506200018d92915062000191565b5090565b5b808211156200018d576000815560010162000192565b600181811c90821680620001bd57607f821691505b60208210811415620001df57634e487b7160e01b600052602260045260246000fd5b50919050565b61259080620001f56000396000f3fe608060405234801561001057600080fd5b50600436106101375760003560e01c80638da5cb5b116100b8578063c791fbda1161007c578063c791fbda146102a1578063c87b56dd146102b4578063cb177b1e146102c7578063e985e9c5146102da578063f2ccc54314610316578063f2fde38b1461032957600080fd5b80638da5cb5b1461023f57806395d89b4114610250578063a22cb46514610258578063aa2fe91b1461026b578063b88d4fde1461028e57600080fd5b806327aed72e116100ff57806327aed72e146101cc57806342842e0e146101f05780636352211e1461020357806370a0823114610216578063715018a61461023757600080fd5b806301ffc9a71461013c57806306fdde0314610164578063081812fc14610179578063095ea7b3146101a457806323b872dd146101b9575b600080fd5b61014f61014a366004611cf7565b61033c565b60405190151581526020015b60405180910390f35b61016c61038e565b60405161015b9190611d73565b61018c610187366004611d86565b610420565b6040516001600160a01b03909116815260200161015b565b6101b76101b2366004611dbb565b610447565b005b6101b76101c7366004611de5565b610562565b6101df6101da366004611d86565b610593565b60405161015b959493929190611e21565b6101b76101fe366004611de5565b6106dd565b61018c610211366004611d86565b6106f8565b610229610224366004611e6d565b610758565b60405190815260200161015b565b6101b76107de565b6006546001600160a01b031661018c565b61016c6107f2565b6101b7610266366004611e88565b610801565b61014f610279366004611e6d565b60096020526000908152604090205460ff1681565b6101b761029c366004611f50565b610810565b6102296102af366004611fec565b610848565b61016c6102c2366004611d86565b6109b8565b6101b76102d5366004611e88565b610c3b565b61014f6102e836600461207b565b6001600160a01b03918216600090815260056020908152604080832093909416825291909152205460ff1690565b6101df610324366004611d86565b610c6e565b6101b7610337366004611e6d565b610e76565b60006001600160e01b031982166380ac58cd60e01b148061036d57506001600160e01b03198216635b5e139f60e01b145b8061038857506301ffc9a760e01b6001600160e01b03198316145b92915050565b60606000805461039d906120ae565b80601f01602080910402602001604051908101604052809291908181526020018280546103c9906120ae565b80156104165780601f106103eb57610100808354040283529160200191610416565b820191906000526020600020905b8154815290600101906020018083116103f957829003601f168201915b5050505050905090565b600061042b82610eef565b506000908152600460205260409020546001600160a01b031690565b6000610452826106f8565b9050806001600160a01b0316836001600160a01b031614156104c55760405162461bcd60e51b815260206004820152602160248201527f4552433732313a20617070726f76616c20746f2063757272656e74206f776e656044820152603960f91b60648201526084015b60405180910390fd5b336001600160a01b03821614806104e157506104e181336102e8565b6105535760405162461bcd60e51b815260206004820152603d60248201527f4552433732313a20617070726f76652063616c6c6572206973206e6f7420746f60448201527f6b656e206f776e6572206f7220617070726f76656420666f7220616c6c00000060648201526084016104bc565b61055d8383610f4e565b505050565b61056c3382610fbc565b6105885760405162461bcd60e51b81526004016104bc906120e9565b61055d83838361103b565b6008602052600090815260409020805481906105ae906120ae565b80601f01602080910402602001604051908101604052809291908181526020018280546105da906120ae565b80156106275780601f106105fc57610100808354040283529160200191610627565b820191906000526020600020905b81548152906001019060200180831161060a57829003601f168201915b50505050509080600101805461063c906120ae565b80601f0160208091040260200160405190810160405280929190818152602001828054610668906120ae565b80156106b55780601f1061068a576101008083540402835291602001916106b5565b820191906000526020600020905b81548152906001019060200180831161069857829003601f168201915b5050505060028301546003840154600490940154929390926001600160a01b03909116915085565b61055d83838360405180602001604052806000815250610810565b6000818152600260205260408120546001600160a01b0316806103885760405162461bcd60e51b8152602060048201526018602482015277115490cdcc8c4e881a5b9d985b1a59081d1bdad95b88125160421b60448201526064016104bc565b60006001600160a01b0382166107c25760405162461bcd60e51b815260206004820152602960248201527f4552433732313a2061646472657373207a65726f206973206e6f7420612076616044820152683634b21037bbb732b960b91b60648201526084016104bc565b506001600160a01b031660009081526003602052604090205490565b6107e661119f565b6107f060006111f9565b565b60606001805461039d906120ae565b61080c33838361124b565b5050565b61081a3383610fbc565b6108365760405162461bcd60e51b81526004016104bc906120e9565b6108428484848461131a565b50505050565b3360009081526009602052604081205460ff166108a05760405162461bcd60e51b8152602060048201526016602482015275139bdd08185d5d1a1bdc9a5e9959081d1bc81b5a5b9d60521b60448201526064016104bc565b6108ae600780546001019055565b60006108b960075490565b90506108c5878261134d565b6040805160a08101825287815260208082018890528183018790526001600160a01b03861660608301524260808301526000848152600882529290922081518051929391926109179284920190611c48565b5060208281015180516109309260018501920190611c48565b50604082810151600283015560608301516003830180546001600160a01b0319166001600160a01b03928316179055608090930151600490920191909155519088169082907f8711bf998060223bc14747e7bd6f3c5eb3668cb94533826304f4aef58ed38e15906109a6908a9089908990612136565b60405180910390a39695505050505050565b6000818152600260205260409020546060906001600160a01b0316610a2f5760405162461bcd60e51b815260206004820152602760248201527f4552433732313a2055524920717565727920666f72206e6f6e6578697374656e6044820152663a103a37b5b2b760c91b60648201526084016104bc565b600082815260086020526040808220815160a08101909252805482908290610a56906120ae565b80601f0160208091040260200160405190810160405280929190818152602001828054610a82906120ae565b8015610acf5780601f10610aa457610100808354040283529160200191610acf565b820191906000526020600020905b815481529060010190602001808311610ab257829003601f168201915b50505050508152602001600182018054610ae8906120ae565b80601f0160208091040260200160405190810160405280929190818152602001828054610b14906120ae565b8015610b615780601f10610b3657610100808354040283529160200191610b61565b820191906000526020600020905b815481529060010190602001808311610b4457829003601f168201915b50505050508152602001600282015481526020016003820160009054906101000a90046001600160a01b03166001600160a01b03166001600160a01b031681526020016004820154815250509050600081600001518260200151610bc88460400151611367565b610bd58560600151611470565b610be28660800151611367565b604051602001610bf6959493929190612185565b60405160208183030381529060405290506000610c1282611652565b604051602001610c229190612311565b60408051601f1981840301815291905295945050505050565b610c4361119f565b6001600160a01b03919091166000908152600960205260409020805460ff1916911515919091179055565b6060806000806000610c97866000908152600260205260409020546001600160a01b0316151590565b610ce35760405162461bcd60e51b815260206004820152601a60248201527f416368696576656d656e7420646f6573206e6f7420657869737400000000000060448201526064016104bc565b600086815260086020526040808220815160a08101909252805482908290610d0a906120ae565b80601f0160208091040260200160405190810160405280929190818152602001828054610d36906120ae565b8015610d835780601f10610d5857610100808354040283529160200191610d83565b820191906000526020600020905b815481529060010190602001808311610d6657829003601f168201915b50505050508152602001600182018054610d9c906120ae565b80601f0160208091040260200160405190810160405280929190818152602001828054610dc8906120ae565b8015610e155780601f10610dea57610100808354040283529160200191610e15565b820191906000526020600020905b815481529060010190602001808311610df857829003601f168201915b5050509183525050600282015460208083019190915260038301546001600160a01b03166040808401919091526004909301546060928301528351908401519284015191840151608090940151909b929a5090985091965090945092505050565b610e7e61119f565b6001600160a01b038116610ee35760405162461bcd60e51b815260206004820152602660248201527f4f776e61626c653a206e6577206f776e657220697320746865207a65726f206160448201526564647265737360d01b60648201526084016104bc565b610eec816111f9565b50565b6000818152600260205260409020546001600160a01b0316610eec5760405162461bcd60e51b8152602060048201526018602482015277115490cdcc8c4e881a5b9d985b1a59081d1bdad95b88125160421b60448201526064016104bc565b600081815260046020526040902080546001600160a01b0319166001600160a01b0384169081179091558190610f83826106f8565b6001600160a01b03167f8c5be1e5ebec7d5bd14f71427d1e84f3dd0314c0f7b2291e5b200ac8c7c3b92560405160405180910390a45050565b600080610fc8836106f8565b9050806001600160a01b0316846001600160a01b0316148061100f57506001600160a01b0380821660009081526005602090815260408083209388168352929052205460ff165b806110335750836001600160a01b031661102884610420565b6001600160a01b0316145b949350505050565b826001600160a01b031661104e826106f8565b6001600160a01b0316146110745760405162461bcd60e51b81526004016104bc90612356565b6001600160a01b0382166110d65760405162461bcd60e51b8152602060048201526024808201527f4552433732313a207472616e7366657220746f20746865207a65726f206164646044820152637265737360e01b60648201526084016104bc565b826001600160a01b03166110e9826106f8565b6001600160a01b03161461110f5760405162461bcd60e51b81526004016104bc90612356565b600081815260046020908152604080832080546001600160a01b03199081169091556001600160a01b0387811680865260038552838620805460001901905590871680865283862080546001019055868652600290945282852080549092168417909155905184937fddf252ad1be2c89b69c2b068fc378daa952ba7f163c4a11628f55a4df523b3ef91a4505050565b6006546001600160a01b031633146107f05760405162461bcd60e51b815260206004820181905260248201527f4f776e61626c653a2063616c6c6572206973206e6f7420746865206f776e657260448201526064016104bc565b600680546001600160a01b038381166001600160a01b0319831681179093556040519116919082907f8be0079c531659141344cd1fd0a4f28419497f9722a3daafe3b4186f6b6457e090600090a35050565b816001600160a01b0316836001600160a01b031614156112ad5760405162461bcd60e51b815260206004820152601960248201527f4552433732313a20617070726f766520746f2063616c6c65720000000000000060448201526064016104bc565b6001600160a01b03838116600081815260056020908152604080832094871680845294825291829020805460ff191686151590811790915591519182527f17307eab39ab6107e8899845ad3d59bd9653f200f220920489ca2b5937696c31910160405180910390a3505050565b61132584848461103b565b6113318484848461197d565b6108425760405162461bcd60e51b81526004016104bc9061239b565b61080c828260405180602001604052806000815250611a8a565b60608161138b5750506040805180820190915260018152600360fc1b602082015290565b8160005b81156113b5578061139f81612403565b91506113ae9050600a83612434565b915061138f565b60008167ffffffffffffffff8111156113d0576113d0611ec4565b6040519080825280601f01601f1916602001820160405280156113fa576020820181803683370190505b508593509050815b831561146757611413600a85612448565b61141e90603061245c565b60f81b8261142b83612474565b9250828151811061143e5761143e61248b565b60200101906001600160f81b031916908160001a905350611460600a85612434565b9350611402565b50949350505050565b604080518082018252601081526f181899199a1a9b1b9c1cb0b131b232b360811b60208201528151602a80825260608281019094526001600160a01b0385169291600091602082018180368337019050509050600360fc1b816000815181106114db576114db61248b565b60200101906001600160f81b031916908160001a905350600f60fb1b8160018151811061150a5761150a61248b565b60200101906001600160f81b031916908160001a90535060005b6014811015611467578260048561153c84600c61245c565b6020811061154c5761154c61248b565b1a60f81b6001600160f81b031916901c60f81c60ff16815181106115725761157261248b565b01602001516001600160f81b0319168261158d8360026124a1565b61159890600261245c565b815181106115a8576115a861248b565b60200101906001600160f81b031916908160001a90535082846115cc83600c61245c565b602081106115dc576115dc61248b565b825191901a600f169081106115f3576115f361248b565b01602001516001600160f81b0319168261160e8360026124a1565b61161990600361245c565b815181106116295761162961248b565b60200101906001600160f81b031916908160001a9053508061164a81612403565b915050611524565b6060600060405180606001604052806040815260200161251b6040913983519091508061169057505060408051602081019091526000815292915050565b6000600361169f83600261245c565b6116a99190612434565b6116b49060046124a1565b67ffffffffffffffff8111156116cc576116cc611ec4565b6040519080825280601f01601f1916602001820160405280156116f6576020820181803683370190505b509050806000805b8481101561197157600088828151811061171a5761171a61248b565b016020015160f81c905060008661173284600161245c565b1061173e576000611763565b8961174a84600161245c565b8151811061175a5761175a61248b565b016020015160f81c5b60ff16905060008761177685600261245c565b106117825760006117a7565b8a61178e85600261245c565b8151811061179e5761179e61248b565b016020015160f81c5b60ff169050600081600884901b601086901b1717905089601282901c815181106117d3576117d361248b565b602001015160f81c60f81b8787815181106117f0576117f061248b565b60200101906001600160f81b031916908160001a90535089600c82901c603f16815181106118205761182061248b565b01602001516001600160f81b0319168761183b88600161245c565b8151811061184b5761184b61248b565b60200101906001600160f81b031916908160001a9053508861186e86600161245c565b1061187d57603d60f81b6118a6565b89600682901c603f16815181106118965761189661248b565b01602001516001600160f81b0319165b876118b288600261245c565b815181106118c2576118c261248b565b60200101906001600160f81b031916908160001a905350886118e586600261245c565b106118f457603d60f81b611919565b8981603f16815181106119095761190961248b565b01602001516001600160f81b0319165b8761192588600361245c565b815181106119355761193561248b565b60200101906001600160f81b031916908160001a90535061195760048761245c565b95505050505060038161196a919061245c565b90506116fe565b50919695505050505050565b60006001600160a01b0384163b15611a7f57604051630a85bd0160e11b81526001600160a01b0385169063150b7a02906119c19033908990889088906004016124c0565b602060405180830381600087803b1580156119db57600080fd5b505af1925050508015611a0b575060408051601f3d908101601f19168201909252611a08918101906124fd565b60015b611a65573d808015611a39576040519150601f19603f3d011682016040523d82523d6000602084013e611a3e565b606091505b508051611a5d5760405162461bcd60e51b81526004016104bc9061239b565b805181602001fd5b6001600160e01b031916630a85bd0160e11b149050611033565b506001949350505050565b611a948383611abd565b611aa1600084848461197d565b61055d5760405162461bcd60e51b81526004016104bc9061239b565b6001600160a01b038216611b135760405162461bcd60e51b815260206004820181905260248201527f4552433732313a206d696e7420746f20746865207a65726f206164647265737360448201526064016104bc565b6000818152600260205260409020546001600160a01b031615611b785760405162461bcd60e51b815260206004820152601c60248201527f4552433732313a20746f6b656e20616c7265616479206d696e7465640000000060448201526064016104bc565b6000818152600260205260409020546001600160a01b031615611bdd5760405162461bcd60e51b815260206004820152601c60248201527f4552433732313a20746f6b656e20616c7265616479206d696e7465640000000060448201526064016104bc565b6001600160a01b038216600081815260036020908152604080832080546001019055848352600290915280822080546001600160a01b0319168417905551839291907fddf252ad1be2c89b69c2b068fc378daa952ba7f163c4a11628f55a4df523b3ef908290a45050565b828054611c54906120ae565b90600052602060002090601f016020900481019282611c765760008555611cbc565b82601f10611c8f57805160ff1916838001178555611cbc565b82800160010185558215611cbc579182015b82811115611cbc578251825591602001919060010190611ca1565b50611cc8929150611ccc565b5090565b5b80821115611cc85760008155600101611ccd565b6001600160e01b031981168114610eec57600080fd5b600060208284031215611d0957600080fd5b8135611d1481611ce1565b9392505050565b60005b83811015611d36578181015183820152602001611d1e565b838111156108425750506000910152565b60008151808452611d5f816020860160208601611d1b565b601f01601f19169290920160200192915050565b602081526000611d146020830184611d47565b600060208284031215611d9857600080fd5b5035919050565b80356001600160a01b0381168114611db657600080fd5b919050565b60008060408385031215611dce57600080fd5b611dd783611d9f565b946020939093013593505050565b600080600060608486031215611dfa57600080fd5b611e0384611d9f565b9250611e1160208501611d9f565b9150604084013590509250925092565b60a081526000611e3460a0830188611d47565b8281036020840152611e468188611d47565b604084019690965250506001600160a01b0392909216606083015260809091015292915050565b600060208284031215611e7f57600080fd5b611d1482611d9f565b60008060408385031215611e9b57600080fd5b611ea483611d9f565b915060208301358015158114611eb957600080fd5b809150509250929050565b634e487b7160e01b600052604160045260246000fd5b600067ffffffffffffffff80841115611ef557611ef5611ec4565b604051601f8501601f19908116603f01168101908282118183101715611f1d57611f1d611ec4565b81604052809350858152868686011115611f3657600080fd5b858560208301376000602087830101525050509392505050565b60008060008060808587031215611f6657600080fd5b611f6f85611d9f565b9350611f7d60208601611d9f565b925060408501359150606085013567ffffffffffffffff811115611fa057600080fd5b8501601f81018713611fb157600080fd5b611fc087823560208401611eda565b91505092959194509250565b600082601f830112611fdd57600080fd5b611d1483833560208501611eda565b600080600080600060a0868803121561200457600080fd5b61200d86611d9f565b9450602086013567ffffffffffffffff8082111561202a57600080fd5b61203689838a01611fcc565b9550604088013591508082111561204c57600080fd5b5061205988828901611fcc565b9350506060860135915061206f60808701611d9f565b90509295509295909350565b6000806040838503121561208e57600080fd5b61209783611d9f565b91506120a560208401611d9f565b90509250929050565b600181811c908216806120c257607f821691505b602082108114156120e357634e487b7160e01b600052602260045260246000fd5b50919050565b6020808252602d908201527f4552433732313a2063616c6c6572206973206e6f7420746f6b656e206f776e6560408201526c1c881bdc88185c1c1c9bdd9959609a1b606082015260800190565b6060815260006121496060830186611d47565b6020830194909452506001600160a01b0391909116604090910152919050565b6000815161217b818560208601611d1b565b9290920192915050565b693d913730b6b2911d101160b11b815285516000906121ab81600a850160208b01611d1b565b61088b60f21b600a9184019182018190526f113232b9b1b934b83a34b7b7111d101160811b600c83015287516121e881601c850160208c01611d1b565b601c9201918201526e2261747472696275746573223a205b60881b601e8201527f7b2274726169745f74797065223a202253657373696f6e204944222c20227661602d82015266363ab2911d101160c91b604d8201526123056122f76122e96122e36122ab6122616122a56122708260548a018f612169565b62089f4b60ea1b815260030190565b7f7b2274726169745f74797065223a20224d656e746f72222c202276616c7565228152621d101160e91b602082015260230190565b8b612169565b7f7b2274726169745f74797065223a202254696d657374616d70222c202276616c8152653ab2911d101160d11b602082015260260190565b87612169565b61227d60f01b815260020190565b615d7d60f01b815260020190565b98975050505050505050565b7f646174613a6170706c69636174696f6e2f6a736f6e3b6261736536342c00000081526000825161234981601d850160208701611d1b565b91909101601d0192915050565b60208082526025908201527f4552433732313a207472616e736665722066726f6d20696e636f72726563742060408201526437bbb732b960d91b606082015260800190565b60208082526032908201527f4552433732313a207472616e7366657220746f206e6f6e20455243373231526560408201527131b2b4bb32b91034b6b83632b6b2b73a32b960711b606082015260800190565b634e487b7160e01b600052601160045260246000fd5b6000600019821415612417576124176123ed565b5060010190565b634e487b7160e01b600052601260045260246000fd5b6000826124435761244361241e565b500490565b6000826124575761245761241e565b500690565b6000821982111561246f5761246f6123ed565b500190565b600081612483576124836123ed565b506000190190565b634e487b7160e01b600052603260045260246000fd5b60008160001904831182151516156124bb576124bb6123ed565b500290565b6001600160a01b03858116825284166020820152604081018390526080606082018190526000906124f390830184611d47565b9695505050505050565b60006020828403121561250f57600080fd5b8151611d1481611ce156fe4142434445464748494a4b4c4d4e4f505152535455565758595a6162636465666768696a6b6c6d6e6f707172737475767778797a303132333435363738392b2fa26469706673582212206bb3c6a0f073537b6f70164ae0b6efc0a0ea72c404dd35ab26c3eabdb71bb6f664736f6c63430008090033",
  "linkReferences": {},
  "deployedLinkReferences": {}
}