{
  "_format": "hh-sol-artifact-1",
  "contractName": "MentorshipSystem",
  "sourceName": "src/contracts/MentorshipContract.sol",
  "abi": [
    {
      "inputs": [
        {
          "internalType": "address",
          "name": "_eduToken",
          "type": "address"
        }
      ],
      "stateMutability": "nonpayable",
      "type": "constructor"
    },
    {
      "anonymous": false,
      "inputs": [
        {
          "indexed": true,
          "internalType": "address",
          "name": "student",
          "type": "address"
        },
        {
          "indexed": true,
          "internalType": "uint256",
          "name": "tokenId",
          "type": "uint256"
        },
        {
          "indexed": true,
          "internalType": "uint256",
          "name": "sessionId",
          "type": "uint256"
        }
      ],
      "name": "AchievementMinted",
      "type": "event"
    },
    {
      "anonymous": false,
      "inputs": [
        {
          "indexed": true,
          "internalType": "address",
          "name": "mentorAddress",
          "type": "address"
        },
        {
          "indexed": false,
          "internalType": "string",
          "name": "name",
          "type": "string"
        },
        {
          "indexed": false,
          "internalType": "string",
          "name": "expertise",
          "type": "string"
        }
      ],
      "name": "MentorRegistered",
      "type": "event"
    },
    {
      "anonymous": false,
      "inputs": [
        {
          "indexed": true,
          "internalType": "address",
          "name": "mentorAddress",
          "type": "address"
        },
        {
          "indexed": false,
          "internalType": "string",
          "name": "name",
          "type": "string"
        },
        {
          "indexed": false,
          "internalType": "string",
          "name": "expertise",
          "type": "string"
        },
        {
          "indexed": false,
          "internalType": "uint256",
          "name": "hourlyRate",
          "type": "uint256"
        },
        {
          "indexed": false,
          "internalType": "bool",
          "name": "isAvailable",
          "type": "bool"
        }
      ],
      "name": "MentorUpdated",
      "type": "event"
    },
    {
      "anonymous": false,
      "inputs": [
        {
          "indexed": true,
          "internalType": "uint256",
          "name": "sessionId",
          "type": "uint256"
        },
        {
          "indexed": false,
          "internalType": "uint256",
          "name": "amount",
          "type": "uint256"
        }
      ],
      "name": "PaymentProcessed",
      "type": "event"
    },
    {
      "anonymous": false,
      "inputs": [
        {
          "indexed": true,
          "internalType": "uint256",
          "name": "sessionId",
          "type": "uint256"
        }
      ],
      "name": "SessionCompleted",
      "type": "event"
    },
    {
      "anonymous": false,
      "inputs": [
        {
          "indexed": true,
          "internalType": "address",
          "name": "mentor",
          "type": "address"
        },
        {
          "indexed": true,
          "internalType": "address",
          "name": "student",
          "type": "address"
        },
        {
          "indexed": false,
          "internalType": "uint256",
          "name": "endTime",
          "type": "uint256"
        }
      ],
      "name": "SessionEnded",
      "type": "event"
    },
    {
      "anonymous": false,
      "inputs": [
        {
          "indexed": true,
          "internalType": "address",
          "name": "mentor",
          "type": "address"
        },
        {
          "indexed": true,
          "internalType": "address",
          "name": "student",
          "type": "address"
        },
        {
          "indexed": false,
          "internalType": "uint256",
          "name": "startTime",
          "type": "uint256"
        }
      ],
      "name": "SessionStarted",
      "type": "event"
    },
    {
      "anonymous": false,
      "inputs": [
        {
          "indexed": true,
          "internalType": "address",
          "name": "studentAddress",
          "type": "address"
        },
        {
          "indexed": false,
          "internalType": "string",
          "name": "name",
          "type": "string"
        }
      ],
      "name": "StudentRegistered",
      "type": "event"
    },
    {
      "inputs": [
        {
          "internalType": "bytes32",
          "name": "",
          "type": "bytes32"
        }
      ],
      "name": "activeSessionsByHash",
      "outputs": [
        {
          "internalType": "uint256",
          "name": "sessionId",
          "type": "uint256"
        },
        {
          "internalType": "address",
          "name": "mentor",
          "type": "address"
        },
        {
          "internalType": "address",
          "name": "student",
          "type": "address"
        },
        {
          "internalType": "uint256",
          "name": "startTime",
          "type": "uint256"
        },
        {
          "internalType": "uint256",
          "name": "duration",
          "type": "uint256"
        },
        {
          "internalType": "uint256",
          "name": "amount",
          "type": "uint256"
        },
        {
          "internalType": "bool",
          "name": "isActive",
          "type": "bool"
        },
        {
          "internalType": "bool",
          "name": "isPaid",
          "type": "bool"
        },
        {
          "internalType": "bool",
          "name": "isCompleted",
          "type": "bool"
        },
        {
          "internalType": "bool",
          "name": "nftMinted",
          "type": "bool"
        }
      ],
      "stateMutability": "view",
      "type": "function"
    },
    {
      "inputs": [],
      "name": "eduToken",
      "outputs": [
        {
          "internalType": "contract IERC20",
          "name": "",
          "type": "address"
        }
      ],
      "stateMutability": "view",
      "type": "function"
    },
    {
      "inputs": [
        {
          "internalType": "address",
          "name": "_studentAddress",
          "type": "address"
        }
      ],
      "name": "endSession",
      "outputs": [],
      "stateMutability": "nonpayable",
      "type": "function"
    },
    {
      "inputs": [
        {
          "internalType": "address",
          "name": "_mentorAddress",
          "type": "address"
        }
      ],
      "name": "getMentorHourlyRate",
      "outputs": [
        {
          "internalType": "uint256",
          "name": "",
          "type": "uint256"
        }
      ],
      "stateMutability": "view",
      "type": "function"
    },
    {
      "inputs": [
        {
          "internalType": "address",
          "name": "_mentorAddress",
          "type": "address"
        }
      ],
      "name": "getMentorRating",
      "outputs": [
        {
          "internalType": "uint256",
          "name": "",
          "type": "uint256"
        },
        {
          "internalType": "uint256",
          "name": "",
          "type": "uint256"
        }
      ],
      "stateMutability": "view",
      "type": "function"
    },
    {
      "inputs": [
        {
          "internalType": "address",
          "name": "_mentorAddress",
          "type": "address"
        }
      ],
      "name": "getMentorSessions",
      "outputs": [
        {
          "internalType": "uint256[]",
          "name": "",
          "type": "uint256[]"
        }
      ],
      "stateMutability": "view",
      "type": "function"
    },
    {
      "inputs": [
        {
          "internalType": "address",
          "name": "_student",
          "type": "address"
        }
      ],
      "name": "getStudentAchievements",
      "outputs": [
        {
          "internalType": "uint256[]",
          "name": "",
          "type": "uint256[]"
        }
      ],
      "stateMutability": "view",
      "type": "function"
    },
    {
      "inputs": [],
      "name": "getStudentSessions",
      "outputs": [
        {
          "internalType": "uint256[]",
          "name": "",
          "type": "uint256[]"
        }
      ],
      "stateMutability": "view",
      "type": "function"
    },
    {
      "inputs": [
        {
          "internalType": "address",
          "name": "",
          "type": "address"
        }
      ],
      "name": "mentors",
      "outputs": [
        {
          "internalType": "address payable",
          "name": "walletAddress",
          "type": "address"
        },
        {
          "internalType": "string",
          "name": "name",
          "type": "string"
        },
        {
          "internalType": "string",
          "name": "expertise",
          "type": "string"
        },
        {
          "internalType": "uint256",
          "name": "hourlyRate",
          "type": "uint256"
        },
        {
          "internalType": "bool",
          "name": "isAvailable",
          "type": "bool"
        },
        {
          "internalType": "uint256",
          "name": "rating",
          "type": "uint256"
        },
        {
          "internalType": "uint256",
          "name": "totalRatings",
          "type": "uint256"
        }
      ],
      "stateMutability": "view",
      "type": "function"
    },
    {
      "inputs": [],
      "name": "nftContract",
      "outputs": [
        {
          "internalType": "contract IMentorshipNFT",
          "name": "",
          "type": "address"
        }
      ],
      "stateMutability": "view",
      "type": "function"
    },
    {
      "inputs": [],
      "name": "platformFee",
      "outputs": [
        {
          "internalType": "uint256",
          "name": "",
          "type": "uint256"
        }
      ],
      "stateMutability": "view",
      "type": "function"
    },
    {
      "inputs": [],
      "name": "platformWallet",
      "outputs": [
        {
          "internalType": "address payable",
          "name": "",
          "type": "address"
        }
      ],
      "stateMutability": "view",
      "type": "function"
    },
    {
      "inputs": [
        {
          "internalType": "address",
          "name": "_mentorAddress",
          "type": "address"
        },
        {
          "internalType": "uint256",
          "name": "_rating",
          "type": "uint256"
        }
      ],
      "name": "rateMentor",
      "outputs": [],
      "stateMutability": "nonpayable",
      "type": "function"
    },
    {
      "inputs": [
        {
          "internalType": "address payable",
          "name": "_mentorAddress",
          "type": "address"
        },
        {
          "internalType": "string",
          "name": "_name",
          "type": "string"
        },
        {
          "internalType": "string",
          "name": "_expertise",
          "type": "string"
        },
        {
          "internalType": "uint256",
          "name": "_hourlyRate",
          "type": "uint256"
        }
      ],
      "name": "registerMentor",
      "outputs": [],
      "stateMutability": "nonpayable",
      "type": "function"
    },
    {
      "inputs": [
        {
          "internalType": "string",
          "name": "_name",
          "type": "string"
        }
      ],
      "name": "registerStudent",
      "outputs": [],
      "stateMutability": "nonpayable",
      "type": "function"
    },
    {
      "inputs": [],
      "name": "sessionCounter",
      "outputs": [
        {
          "internalType": "uint256",
          "name": "",
          "type": "uint256"
        }
      ],
      "stateMutability": "view",
      "type": "function"
    },
    {
      "inputs": [
        {
          "internalType": "uint256",
          "name": "",
          "type": "uint256"
        }
      ],
      "name": "sessions",
      "outputs": [
        {
          "internalType": "uint256",
          "name": "sessionId",
          "type": "uint256"
        },
        {
          "internalType": "address",
          "name": "mentor",
          "type": "address"
        },
        {
          "internalType": "address",
          "name": "student",
          "type": "address"
        },
        {
          "internalType": "uint256",
          "name": "startTime",
          "type": "uint256"
        },
        {
          "internalType": "uint256",
          "name": "duration",
          "type": "uint256"
        },
        {
          "internalType": "uint256",
          "name": "amount",
          "type": "uint256"
        },
        {
          "internalType": "bool",
          "name": "isActive",
          "type": "bool"
        },
        {
          "internalType": "bool",
          "name": "isPaid",
          "type": "bool"
        },
        {
          "internalType": "bool",
          "name": "isCompleted",
          "type": "bool"
        },
        {
          "internalType": "bool",
          "name": "nftMinted",
          "type": "bool"
        }
      ],
      "stateMutability": "view",
      "type": "function"
    },
    {
      "inputs": [
        {
          "internalType": "address",
          "name": "_nftContract",
          "type": "address"
        }
      ],
      "name": "setNFTContract",
      "outputs": [],
      "stateMutability": "nonpayable",
      "type": "function"
    },
    {
      "inputs": [
        {
          "internalType": "address",
          "name": "_mentorAddress",
          "type": "address"
        }
      ],
      "name": "startSession",
      "outputs": [],
      "stateMutability": "nonpayable",
      "type": "function"
    },
    {
      "inputs": [
        {
          "internalType": "address",
          "name": "",
          "type": "address"
        }
      ],
      "name": "students",
      "outputs": [
        {
          "internalType": "address",
          "name": "walletAddress",
          "type": "address"
        },
        {
          "internalType": "string",
          "name": "name",
          "type": "string"
        },
        {
          "internalType": "bool",
          "name": "isRegistered",
          "type": "bool"
        },
        {
          "internalType": "address",
          "name": "currentMentor",
          "type": "address"
        }
      ],
      "stateMutability": "view",
      "type": "function"
    },
    {
      "inputs": [
        {
          "internalType": "address",
          "name": "_mentorAddress",
          "type": "address"
        },
        {
          "internalType": "string",
          "name": "_name",
          "type": "string"
        },
        {
          "internalType": "string",
          "name": "_expertise",
          "type": "string"
        },
        {
          "internalType": "uint256",
          "name": "_hourlyRate",
          "type": "uint256"
        },
        {
          "internalType": "bool",
          "name": "_isAvailable",
          "type": "bool"
        }
      ],
      "name": "updateMentor",
      "outputs": [],
      "stateMutability": "nonpayable",
      "type": "function"
    },
    {
      "inputs": [
        {
          "internalType": "uint256",
          "name": "_newFee",
          "type": "uint256"
        }
      ],
      "name": "updatePlatformFee",
      "outputs": [],
      "stateMutability": "nonpayable",
      "type": "function"
    },
    {
      "inputs": [],
      "name": "withdrawEmergency",
      "outputs": [],
      "stateMutability": "nonpayable",
      "type": "function"
    }
  ],
  "bytecode": "0x608060405260056004553480156200001657600080fd5b506040516200266d3803806200266d833981016040819052620000399162000072565b60058054336001600160a01b0319918216179091556000600655600880549091166001600160a01b0392909216919091179055620000a4565b6000602082840312156200008557600080fd5b81516001600160a01b03811681146200009d57600080fd5b9392505050565b6125b980620000b46000396000f3fe608060405234801561001057600080fd5b506004361061014d5760003560e01c80638d878889116100c3578063d1e9ecb41161007c578063d1e9ecb4146103f2578063d56d229d1461043b578063ed3764bb1461044e578063eed4ea8f14610461578063fa2af9da14610487578063fc3e00e51461049a57600080fd5b80638d87888914610362578063a48646ea1461038d578063a6c807a9146103a0578063a7ccabdf146103c3578063aa0b5988146103d6578063cc64e2af146103e957600080fd5b806357520d201161011557806357520d20146101b357806362b951b5146101c657806371e17445146101f25780637ce027941461020557806383c4b7a3146102185780638bef5d0a146102ec57600080fd5b806326232a2e146101525780633868362f1461016e5780634146a0731461018357806349429b301461018d57806352f0bf6e146101a0575b600080fd5b61015b60045481565b6040519081526020015b60405180910390f35b6101766104ad565b6040516101659190611eb3565b61018b610511565b005b61018b61019b366004611fbd565b610699565b61018b6101ae366004612052565b6107cf565b6101766101c1366004612052565b610f92565b61015b6101d4366004612052565b6001600160a01b031660009081526020819052604090206003015490565b61018b610200366004612076565b610fff565b61018b610213366004612052565b611192565b61028e6102263660046120b3565b6002602081905260009182526040909120805460018201549282015460038301546004840154600585015460069095015493956001600160a01b03908116959316939192909160ff80821691610100810482169162010000820481169163010000009004168a565b604080519a8b526001600160a01b03998a1660208c015297909816968901969096526060880194909452608087019290925260a0860152151560c0850152151560e08401521515610100830152151561012082015261014001610165565b61028e6102fa3660046120b3565b6003602081905260009182526040909120805460018201546002830154938301546004840154600585015460069095015493956001600160a01b03938416959316939192909160ff80821691610100810482169162010000820481169163010000009004168a565b600854610375906001600160a01b031681565b6040516001600160a01b039091168152602001610165565b61017661039b366004612052565b611777565b6103b36103ae366004612052565b6117e4565b6040516101659493929190612119565b61018b6103d1366004612052565b6118ae565b61018b6103e43660046120b3565b6118fa565b61015b60065481565b610426610400366004612052565b6001600160a01b0316600090815260208190526040902060058101546006909101549091565b60408051928352602083019190915201610165565b600754610375906001600160a01b031681565b61018b61045c366004612154565b611972565b61047461046f366004612052565b611b4a565b60405161016597969594939291906121d2565b600554610375906001600160a01b031681565b61018b6104a836600461222f565b611ca4565b3360009081526001602090815260409182902060030180548351818402810184019094528084526060939283018282801561050757602002820191906000526020600020905b8154815260200190600101908083116104f3575b5050505050905090565b6005546001600160a01b031633146105445760405162461bcd60e51b815260040161053b9061225b565b60405180910390fd5b6008546040516370a0823160e01b81523060048201526000916001600160a01b0316906370a082319060240160206040518083038186803b15801561058857600080fd5b505afa15801561059c573d6000803e3d6000fd5b505050506040513d601f19601f820116820180604052508101906105c0919061229f565b60085460055460405163a9059cbb60e01b81526001600160a01b03918216600482015260248101849052929350169063a9059cbb90604401602060405180830381600087803b15801561061257600080fd5b505af1158015610626573d6000803e3d6000fd5b505050506040513d601f19601f8201168201806040525081019061064a91906122b8565b6106965760405162461bcd60e51b815260206004820152601b60248201527f456d657267656e6379207769746864726177616c206661696c65640000000000604482015260640161053b565b50565b6005546001600160a01b031633146106c35760405162461bcd60e51b815260040161053b9061225b565b6001600160a01b03858116600090815260208190526040902054166107225760405162461bcd60e51b815260206004820152601560248201527413595b9d1bdc881b9bdd081c9959da5cdd195c9959605a1b604482015260640161053b565b6001600160a01b03851660009081526020818152604090912085519091610750916001840191880190611de0565b5083516107669060028301906020870190611de0565b506003810183905560048101805460ff19168315151790556040516001600160a01b038716907f2f2e35643c26cf293345dbf52416d3a113678fb22233d69e3cb7dd6d92908aa5906107bf9088908890889088906122d5565b60405180910390a2505050505050565b3360009081526001602052604090206002015460ff1661082a5760405162461bcd60e51b815260206004820152601660248201527514dd1d59195b9d081b9bdd081c9959da5cdd195c995960521b604482015260640161053b565b6001600160a01b03811660009081526020819052604090206004015460ff1661088c5760405162461bcd60e51b81526020600482015260146024820152734d656e746f72206e6f7420617661696c61626c6560601b604482015260640161053b565b6001600160a01b0381811660009081526020819052604090819020600301546008549151636eb1769f60e11b815233600482015230602482015290928392169063dd62ed3e9060440160206040518083038186803b1580156108ed57600080fd5b505afa158015610901573d6000803e3d6000fd5b505050506040513d601f19601f82011682018060405250810190610925919061229f565b10156109735760405162461bcd60e51b815260206004820181905260248201527f496e73756666696369656e742045445520746f6b656e20616c6c6f77616e6365604482015260640161053b565b6008546040516370a0823160e01b815233600482015282916001600160a01b0316906370a082319060240160206040518083038186803b1580156109b657600080fd5b505afa1580156109ca573d6000803e3d6000fd5b505050506040513d601f19601f820116820180604052508101906109ee919061229f565b1015610a3c5760405162461bcd60e51b815260206004820152601e60248201527f496e73756666696369656e742045445520746f6b656e2062616c616e63650000604482015260640161053b565b6008546040516323b872dd60e01b8152336004820152306024820152604481018390526001600160a01b03909116906323b872dd90606401602060405180830381600087803b158015610a8e57600080fd5b505af1158015610aa2573d6000803e3d6000fd5b505050506040513d601f19601f82011682018060405250810190610ac691906122b8565b610b125760405162461bcd60e51b815260206004820152601960248201527f45445520746f6b656e207472616e73666572206661696c656400000000000000604482015260640161053b565b6006805460009182610b2383612329565b909155506040516bffffffffffffffffffffffff19606086811b8216602084015233901b1660348201524260488201529091506000906068016040516020818303038152906040528051906020012090506000604051806101400160405280848152602001866001600160a01b03168152602001336001600160a01b03168152602001428152602001610e10815260200185815260200160011515815260200160011515815260200160001515815260200160001515815250905080600260008581526020019081526020016000206000820151816000015560208201518160010160006101000a8154816001600160a01b0302191690836001600160a01b0316021790555060408201518160020160006101000a8154816001600160a01b0302191690836001600160a01b03160217905550606082015181600301556080820151816004015560a0820151816005015560c08201518160060160006101000a81548160ff02191690831515021790555060e08201518160060160016101000a81548160ff0219169083151502179055506101008201518160060160026101000a81548160ff0219169083151502179055506101208201518160060160036101000a81548160ff02191690831515021790555090505080600360008481526020019081526020016000206000820151816000015560208201518160010160006101000a8154816001600160a01b0302191690836001600160a01b0316021790555060408201518160020160006101000a8154816001600160a01b0302191690836001600160a01b03160217905550606082015181600301556080820151816004015560a0820151816005015560c08201518160060160006101000a81548160ff02191690831515021790555060e08201518160060160016101000a81548160ff0219169083151502179055506101008201518160060160026101000a81548160ff0219169083151502179055506101208201518160060160036101000a81548160ff021916908315150217905550905050600080866001600160a01b03166001600160a01b0316815260200190815260200160002060070183908060018154018082558091505060019003906000526020600020016000909190919091505560016000336001600160a01b03166001600160a01b031681526020019081526020016000206003018390806001815401808255809150506001900390600052602060002001600090919091909150558460016000336001600160a01b03166001600160a01b0316815260200190815260200160002060020160016101000a8154816001600160a01b0302191690836001600160a01b031602179055506000806000876001600160a01b03166001600160a01b0316815260200190815260200160002060040160006101000a81548160ff021916908315150217905550336001600160a01b0316856001600160a01b03167fe815557aeb6b29e573802700217f15282503c9eb1bc96942e7bf8416674ae3d242604051610f8391815260200190565b60405180910390a35050505050565b6001600160a01b03811660009081526020818152604091829020600701805483518184028101840190945280845260609392830182828015610ff357602002820191906000526020600020905b815481526020019060010190808311610fdf575b50505050509050919050565b3360009081526001602052604090206002015460ff16156110625760405162461bcd60e51b815260206004820152601a60248201527f53747564656e7420616c72656164792072656769737465726564000000000000604482015260640161053b565b6040805160c0810182523380825260208083018581526001848601819052600060608087018290526080870181905260a0870181905294815281845295909520845181546001600160a01b0319166001600160a01b0390911617815590518051939591936110d893928501929190910190611de0565b50604082015160028201805460608501516001600160a01b031661010002610100600160a81b0319931515939093166001600160a81b03199091161791909117905560808201518051611135916003840191602090910190611e64565b5060a08201518051611151916004840191602090910190611e64565b50506040513391507fc1b20826100814ba286ac576fe980df1dbbcef3d904bb81f3d69a0e8280dc11490611186908590612344565b60405180910390a25050565b336000818152602081905260409020546001600160a01b0316146111f85760405162461bcd60e51b815260206004820152601b60248201527f4f6e6c79206d656e746f722063616e20656e642073657373696f6e0000000000604482015260640161053b565b600080805b336000908152602081905260409020600701548110156112ab5733600090815260208190526040812060070180548390811061123b5761123b612357565b6000918252602080832090910154808352600291829052604090922001549091506001600160a01b03908116908616148015611288575060008181526002602052604090206006015460ff165b15611298579250600191506112ab565b50806112a381612329565b9150506111fd565b50806112ee5760405162461bcd60e51b815260206004820152601260248201527153657373696f6e206e6f742061637469766560701b604482015260640161053b565b600082815260026020818152604080842060068101805462ff00ff1916620100001790553385528483528185206004908101805460ff191660019081179091556001600160a01b038a1687529093529084209092018054610100600160a81b0319169055600582015490549192909160649061136a908461236d565b611374919061238c565b9050600061138282846123ae565b60085460055460405163a9059cbb60e01b81526001600160a01b03918216600482015260248101869052929350169063a9059cbb90604401602060405180830381600087803b1580156113d457600080fd5b505af11580156113e8573d6000803e3d6000fd5b505050506040513d601f19601f8201168201806040525081019061140c91906122b8565b6114585760405162461bcd60e51b815260206004820152601c60248201527f506c6174666f726d20666565207472616e73666572206661696c656400000000604482015260640161053b565b600854336000908152602081905260409081902054905163a9059cbb60e01b81526001600160a01b0391821660048201526024810184905291169063a9059cbb90604401602060405180830381600087803b1580156114b657600080fd5b505af11580156114ca573d6000803e3d6000fd5b505050506040513d601f19601f820116820180604052508101906114ee91906122b8565b61153a5760405162461bcd60e51b815260206004820152601e60248201527f4d656e746f72207061796d656e74207472616e73666572206661696c65640000604482015260640161053b565b60068401546301000000900460ff1615801561156057506007546001600160a01b031615155b156116ce57336000908152602081815260408083209051611587926001909201910161249a565b60408051601f198184030181528282523360009081526020818152928120919450926115b992600290920191016124bc565b60408051601f198184030181529082905260075488546363c8fded60e11b84529193506000926001600160a01b039091169163c791fbda91611605918e918891889133906004016124ee565b602060405180830381600087803b15801561161f57600080fd5b505af1158015611633573d6000803e3d6000fd5b505050506040513d601f19601f82011682018060405250810190611657919061229f565b60068801805463ff000000191663010000001790556001600160a01b038b1660008181526001602081815260408084206004018054938401815584529083209091018490558a549051939450928492917f226d2a645d7edd4fc8d019b3eae722231277e0665965dba0c711be16ef35ba9e91a45050505b6040514281526001600160a01b0388169033907f6f166dbd15d5a0c6c32410896bf20d4f807858612d0a10a425ecbfcee64419049060200160405180910390a383546040517fa4030ee788364ad2db0b246a828edf422efb9e2f4a839c21723971d808b4323c90600090a283546040518481527feee6595b95458aeb5d6b0f0f282dcb44a1378b4547bfe73681dfc0b012985e909060200160405180910390a250505050505050565b6001600160a01b038116600090815260016020908152604091829020600401805483518184028101840190945280845260609392830182828015610ff35760200282019190600052602060002090815481526020019060010190808311610fdf5750505050509050919050565b6001602081905260009182526040909120805491810180546001600160a01b0390931692611811906123c5565b80601f016020809104026020016040519081016040528092919081815260200182805461183d906123c5565b801561188a5780601f1061185f5761010080835404028352916020019161188a565b820191906000526020600020905b81548152906001019060200180831161186d57829003601f168201915b5050506002909301549192505060ff8116906001600160a01b036101009091041684565b6005546001600160a01b031633146118d85760405162461bcd60e51b815260040161053b9061225b565b600780546001600160a01b0319166001600160a01b0392909216919091179055565b6005546001600160a01b031633146119245760405162461bcd60e51b815260040161053b9061225b565b601481111561196d5760405162461bcd60e51b81526020600482015260156024820152744665652063616e6e6f74206578636565642032302560581b604482015260640161053b565b600455565b6005546001600160a01b0316331461199c5760405162461bcd60e51b815260040161053b9061225b565b6001600160a01b03841660009081526020819052604090206004015460ff1615611a085760405162461bcd60e51b815260206004820152601960248201527f4d656e746f7220616c7265616479207265676973746572656400000000000000604482015260640161053b565b60408051610100810182526001600160a01b0386811680835260208084018881528486018890526060808601889052600160808701819052600060a0880181905260c0880181905260e0880183905294855284845296909320855181546001600160a01b03191695169490941784555180519295611a8e93908501929190910190611de0565b5060408201518051611aaa916002840191602090910190611de0565b5060608201516003820155608082015160048201805460ff191691151591909117905560a0820151600582015560c0820151600682015560e08201518051611afc916007840191602090910190611e64565b50905050846001600160a01b03167fc14e42bf83a73674998a153215f928d3b78dd41101d83cac9ca5ea8f8844ff638585604051611b3b92919061253d565b60405180910390a25050505050565b600060208190529081526040902080546001820180546001600160a01b039092169291611b76906123c5565b80601f0160208091040260200160405190810160405280929190818152602001828054611ba2906123c5565b8015611bef5780601f10611bc457610100808354040283529160200191611bef565b820191906000526020600020905b815481529060010190602001808311611bd257829003601f168201915b505050505090806002018054611c04906123c5565b80601f0160208091040260200160405190810160405280929190818152602001828054611c30906123c5565b8015611c7d5780601f10611c5257610100808354040283529160200191611c7d565b820191906000526020600020905b815481529060010190602001808311611c6057829003601f168201915b505050506003830154600484015460058501546006909501549394919360ff909116925087565b60018110158015611cb6575060058111155b611d025760405162461bcd60e51b815260206004820152601e60248201527f526174696e67206d757374206265206265747765656e203120616e6420350000604482015260640161053b565b3360009081526001602052604090206002015460ff16611d6e5760405162461bcd60e51b815260206004820152602160248201527f4f6e6c7920726567697374657265642073747564656e74732063616e207261746044820152606560f81b606482015260840161053b565b6001600160a01b03821660009081526020819052604090206006810154611d9690600161256b565b8282600601548360050154611dab919061236d565b611db5919061256b565b611dbf919061238c565b6005820155600681018054906000611dd683612329565b9190505550505050565b828054611dec906123c5565b90600052602060002090601f016020900481019282611e0e5760008555611e54565b82601f10611e2757805160ff1916838001178555611e54565b82800160010185558215611e54579182015b82811115611e54578251825591602001919060010190611e39565b50611e60929150611e9e565b5090565b828054828255906000526020600020908101928215611e545791602002820182811115611e54578251825591602001919060010190611e39565b5b80821115611e605760008155600101611e9f565b6020808252825182820181905260009190848201906040850190845b81811015611eeb57835183529284019291840191600101611ecf565b50909695505050505050565b6001600160a01b038116811461069657600080fd5b634e487b7160e01b600052604160045260246000fd5b600082601f830112611f3357600080fd5b813567ffffffffffffffff80821115611f4e57611f4e611f0c565b604051601f8301601f19908116603f01168101908282118183101715611f7657611f76611f0c565b81604052838152866020858801011115611f8f57600080fd5b836020870160208301376000602085830101528094505050505092915050565b801515811461069657600080fd5b600080600080600060a08688031215611fd557600080fd5b8535611fe081611ef7565b9450602086013567ffffffffffffffff80821115611ffd57600080fd5b61200989838a01611f22565b9550604088013591508082111561201f57600080fd5b5061202c88828901611f22565b93505060608601359150608086013561204481611faf565b809150509295509295909350565b60006020828403121561206457600080fd5b813561206f81611ef7565b9392505050565b60006020828403121561208857600080fd5b813567ffffffffffffffff81111561209f57600080fd5b6120ab84828501611f22565b949350505050565b6000602082840312156120c557600080fd5b5035919050565b6000815180845260005b818110156120f2576020818501810151868301820152016120d6565b81811115612104576000602083870101525b50601f01601f19169290920160200192915050565b600060018060a01b0380871683526080602084015261213b60808401876120cc565b9415156040840152929092166060909101525092915050565b6000806000806080858703121561216a57600080fd5b843561217581611ef7565b9350602085013567ffffffffffffffff8082111561219257600080fd5b61219e88838901611f22565b945060408701359150808211156121b457600080fd5b506121c187828801611f22565b949793965093946060013593505050565b6001600160a01b038816815260e0602082018190526000906121f6908301896120cc565b828103604084015261220881896120cc565b60608401979097525050921515608084015260a083019190915260c0909101529392505050565b6000806040838503121561224257600080fd5b823561224d81611ef7565b946020939093013593505050565b60208082526024908201527f4f6e6c7920706c6174666f726d2063616e2063616c6c20746869732066756e636040820152633a34b7b760e11b606082015260800190565b6000602082840312156122b157600080fd5b5051919050565b6000602082840312156122ca57600080fd5b815161206f81611faf565b6080815260006122e860808301876120cc565b82810360208401526122fa81876120cc565b6040840195909552505090151560609091015292915050565b634e487b7160e01b600052601160045260246000fd5b600060001982141561233d5761233d612313565b5060010190565b60208152600061206f60208301846120cc565b634e487b7160e01b600052603260045260246000fd5b600081600019048311821515161561238757612387612313565b500290565b6000826123a957634e487b7160e01b600052601260045260246000fd5b500490565b6000828210156123c0576123c0612313565b500390565b600181811c908216806123d957607f821691505b602082108114156123fa57634e487b7160e01b600052602260045260246000fd5b50919050565b8054600090600181811c908083168061241a57607f831692505b602080841082141561243c57634e487b7160e01b600052602260045260246000fd5b81801561245057600181146124615761248e565b60ff1986168952848901965061248e565b60008881526020902060005b868110156124865781548b82015290850190830161246d565b505084890196505b50505050505092915050565b6c029b2b9b9b4b7b7103bb4ba341609d1b8152600061206f600d830184612400565b7f436f6d706c65746564206d656e746f72736869702073657373696f6e20696e208152600061206f6020830184612400565b600060018060a01b03808816835260a0602084015261251060a08401886120cc565b838103604085015261252281886120cc565b60608501969096525092909216608090910152509392505050565b60408152600061255060408301856120cc565b828103602084015261256281856120cc565b95945050505050565b6000821982111561257e5761257e612313565b50019056fea2646970667358221220e8bdab1bb904bcf5fdba03bd27896564a412d4f3726b47d5a2d935a79f456b7e64736f6c63430008090033",
  "linkReferences": {},
  "deployedLinkReferences": {}
}