{
  "_format": "hh-sol-artifact-1",
  "contractName": "MentorshipSystem",
  "sourceName": "src/contracts/MentorshipContract.sol",
  "abi": [
    {
      "inputs": [],
      "stateMutability": "nonpayable",
      "type": "constructor"
    },
    {
      "anonymous": false,
      "inputs": [
        {
          "indexed": true,
          "internalType": "address",
          "name": "mentorAddress",
          "type": "address"
        },
        {
          "indexed": false,
          "internalType": "string",
          "name": "name",
          "type": "string"
        },
        {
          "indexed": false,
          "internalType": "string",
          "name": "expertise",
          "type": "string"
        }
      ],
      "name": "MentorRegistered",
      "type": "event"
    },
    {
      "anonymous": false,
      "inputs": [
        {
          "indexed": true,
          "internalType": "uint256",
          "name": "sessionId",
          "type": "uint256"
        },
        {
          "indexed": false,
          "internalType": "uint256",
          "name": "amount",
          "type": "uint256"
        }
      ],
      "name": "PaymentProcessed",
      "type": "event"
    },
    {
      "anonymous": false,
      "inputs": [
        {
          "indexed": true,
          "internalType": "uint256",
          "name": "sessionId",
          "type": "uint256"
        }
      ],
      "name": "SessionCompleted",
      "type": "event"
    },
    {
      "anonymous": false,
      "inputs": [
        {
          "indexed": true,
          "internalType": "address",
          "name": "mentor",
          "type": "address"
        },
        {
          "indexed": true,
          "internalType": "address",
          "name": "student",
          "type": "address"
        },
        {
          "indexed": false,
          "internalType": "uint256",
          "name": "endTime",
          "type": "uint256"
        }
      ],
      "name": "SessionEnded",
      "type": "event"
    },
    {
      "anonymous": false,
      "inputs": [
        {
          "indexed": true,
          "internalType": "address",
          "name": "mentor",
          "type": "address"
        },
        {
          "indexed": true,
          "internalType": "address",
          "name": "student",
          "type": "address"
        },
        {
          "indexed": false,
          "internalType": "uint256",
          "name": "startTime",
          "type": "uint256"
        }
      ],
      "name": "SessionStarted",
      "type": "event"
    },
    {
      "anonymous": false,
      "inputs": [
        {
          "indexed": true,
          "internalType": "address",
          "name": "studentAddress",
          "type": "address"
        },
        {
          "indexed": false,
          "internalType": "string",
          "name": "name",
          "type": "string"
        }
      ],
      "name": "StudentRegistered",
      "type": "event"
    },
    {
      "inputs": [
        {
          "internalType": "bytes32",
          "name": "",
          "type": "bytes32"
        }
      ],
      "name": "activeSessionsByHash",
      "outputs": [
        {
          "internalType": "uint256",
          "name": "sessionId",
          "type": "uint256"
        },
        {
          "internalType": "address",
          "name": "mentor",
          "type": "address"
        },
        {
          "internalType": "address",
          "name": "student",
          "type": "address"
        },
        {
          "internalType": "uint256",
          "name": "startTime",
          "type": "uint256"
        },
        {
          "internalType": "uint256",
          "name": "duration",
          "type": "uint256"
        },
        {
          "internalType": "uint256",
          "name": "amount",
          "type": "uint256"
        },
        {
          "internalType": "bool",
          "name": "isActive",
          "type": "bool"
        },
        {
          "internalType": "bool",
          "name": "isPaid",
          "type": "bool"
        },
        {
          "internalType": "bool",
          "name": "isCompleted",
          "type": "bool"
        }
      ],
      "stateMutability": "view",
      "type": "function"
    },
    {
      "inputs": [
        {
          "internalType": "address",
          "name": "_studentAddress",
          "type": "address"
        }
      ],
      "name": "endSession",
      "outputs": [],
      "stateMutability": "nonpayable",
      "type": "function"
    },
    {
      "inputs": [
        {
          "internalType": "address",
          "name": "_mentorAddress",
          "type": "address"
        }
      ],
      "name": "getMentorRating",
      "outputs": [
        {
          "internalType": "uint256",
          "name": "",
          "type": "uint256"
        },
        {
          "internalType": "uint256",
          "name": "",
          "type": "uint256"
        }
      ],
      "stateMutability": "view",
      "type": "function"
    },
    {
      "inputs": [],
      "name": "getMentorSessions",
      "outputs": [
        {
          "internalType": "uint256[]",
          "name": "",
          "type": "uint256[]"
        }
      ],
      "stateMutability": "view",
      "type": "function"
    },
    {
      "inputs": [],
      "name": "getStudentSessions",
      "outputs": [
        {
          "internalType": "uint256[]",
          "name": "",
          "type": "uint256[]"
        }
      ],
      "stateMutability": "view",
      "type": "function"
    },
    {
      "inputs": [
        {
          "internalType": "address",
          "name": "",
          "type": "address"
        }
      ],
      "name": "mentors",
      "outputs": [
        {
          "internalType": "address payable",
          "name": "walletAddress",
          "type": "address"
        },
        {
          "internalType": "string",
          "name": "name",
          "type": "string"
        },
        {
          "internalType": "string",
          "name": "expertise",
          "type": "string"
        },
        {
          "internalType": "uint256",
          "name": "hourlyRate",
          "type": "uint256"
        },
        {
          "internalType": "bool",
          "name": "isAvailable",
          "type": "bool"
        },
        {
          "internalType": "uint256",
          "name": "rating",
          "type": "uint256"
        },
        {
          "internalType": "uint256",
          "name": "totalRatings",
          "type": "uint256"
        }
      ],
      "stateMutability": "view",
      "type": "function"
    },
    {
      "inputs": [],
      "name": "platformFee",
      "outputs": [
        {
          "internalType": "uint256",
          "name": "",
          "type": "uint256"
        }
      ],
      "stateMutability": "view",
      "type": "function"
    },
    {
      "inputs": [],
      "name": "platformWallet",
      "outputs": [
        {
          "internalType": "address payable",
          "name": "",
          "type": "address"
        }
      ],
      "stateMutability": "view",
      "type": "function"
    },
    {
      "inputs": [
        {
          "internalType": "address",
          "name": "_mentorAddress",
          "type": "address"
        },
        {
          "internalType": "uint256",
          "name": "_rating",
          "type": "uint256"
        }
      ],
      "name": "rateMentor",
      "outputs": [],
      "stateMutability": "nonpayable",
      "type": "function"
    },
    {
      "inputs": [
        {
          "internalType": "string",
          "name": "_name",
          "type": "string"
        },
        {
          "internalType": "string",
          "name": "_expertise",
          "type": "string"
        },
        {
          "internalType": "uint256",
          "name": "_hourlyRate",
          "type": "uint256"
        }
      ],
      "name": "registerMentor",
      "outputs": [],
      "stateMutability": "nonpayable",
      "type": "function"
    },
    {
      "inputs": [
        {
          "internalType": "string",
          "name": "_name",
          "type": "string"
        }
      ],
      "name": "registerStudent",
      "outputs": [],
      "stateMutability": "nonpayable",
      "type": "function"
    },
    {
      "inputs": [],
      "name": "sessionCounter",
      "outputs": [
        {
          "internalType": "uint256",
          "name": "",
          "type": "uint256"
        }
      ],
      "stateMutability": "view",
      "type": "function"
    },
    {
      "inputs": [
        {
          "internalType": "uint256",
          "name": "",
          "type": "uint256"
        }
      ],
      "name": "sessions",
      "outputs": [
        {
          "internalType": "uint256",
          "name": "sessionId",
          "type": "uint256"
        },
        {
          "internalType": "address",
          "name": "mentor",
          "type": "address"
        },
        {
          "internalType": "address",
          "name": "student",
          "type": "address"
        },
        {
          "internalType": "uint256",
          "name": "startTime",
          "type": "uint256"
        },
        {
          "internalType": "uint256",
          "name": "duration",
          "type": "uint256"
        },
        {
          "internalType": "uint256",
          "name": "amount",
          "type": "uint256"
        },
        {
          "internalType": "bool",
          "name": "isActive",
          "type": "bool"
        },
        {
          "internalType": "bool",
          "name": "isPaid",
          "type": "bool"
        },
        {
          "internalType": "bool",
          "name": "isCompleted",
          "type": "bool"
        }
      ],
      "stateMutability": "view",
      "type": "function"
    },
    {
      "inputs": [
        {
          "internalType": "address",
          "name": "_mentorAddress",
          "type": "address"
        }
      ],
      "name": "startSession",
      "outputs": [],
      "stateMutability": "payable",
      "type": "function"
    },
    {
      "inputs": [
        {
          "internalType": "address",
          "name": "",
          "type": "address"
        }
      ],
      "name": "students",
      "outputs": [
        {
          "internalType": "address",
          "name": "walletAddress",
          "type": "address"
        },
        {
          "internalType": "string",
          "name": "name",
          "type": "string"
        },
        {
          "internalType": "bool",
          "name": "isRegistered",
          "type": "bool"
        },
        {
          "internalType": "address",
          "name": "currentMentor",
          "type": "address"
        }
      ],
      "stateMutability": "view",
      "type": "function"
    },
    {
      "inputs": [
        {
          "internalType": "uint256",
          "name": "_newRate",
          "type": "uint256"
        }
      ],
      "name": "updateHourlyRate",
      "outputs": [],
      "stateMutability": "nonpayable",
      "type": "function"
    },
    {
      "inputs": [
        {
          "internalType": "bool",
          "name": "_isAvailable",
          "type": "bool"
        }
      ],
      "name": "updateMentorStatus",
      "outputs": [],
      "stateMutability": "nonpayable",
      "type": "function"
    },
    {
      "inputs": [],
      "name": "withdrawEmergency",
      "outputs": [],
      "stateMutability": "nonpayable",
      "type": "function"
    }
  ],
  "bytecode": "0x6080604052600560045534801561001557600080fd5b50600580546001600160a01b031916331790556000600655611b298061003c6000396000f3fe6080604052600436106101095760003560e01c80638bef5d0a11610095578063cc64e2af11610064578063cc64e2af146103b2578063d1e9ecb4146103c8578063eed4ea8f1461041e578063fa2af9da14610451578063fc3e00e51461048957600080fd5b80638bef5d0a146102d35780638f5a206e1461034d5780639af87cda1461036d578063a6c807a91461038257600080fd5b806356c740f1116100dc57806356c740f11461018357806371e17445146101a35780637ce02794146101c357806383c4b7a3146101e357806389254f45146102b357600080fd5b806326232a2e1461010e5780633868362f146101375780634146a0731461015957806352f0bf6e14610170575b600080fd5b34801561011a57600080fd5b5061012460045481565b6040519081526020015b60405180910390f35b34801561014357600080fd5b5061014c6104a9565b60405161012e91906115c3565b34801561016557600080fd5b5061016e61050d565b005b61016e61017e366004611623565b6105a8565b34801561018f57600080fd5b5061016e61019e366004611645565b610afb565b3480156101af57600080fd5b5061016e6101be36600461170a565b610b7d565b3480156101cf57600080fd5b5061016e6101de366004611623565b610ce8565b3480156101ef57600080fd5b5061025d6101fe366004611747565b6002602081905260009182526040909120805460018201549282015460038301546004840154600585015460069095015493956001600160a01b03908116959316939192909160ff808216916101008104821691620100009091041689565b60408051998a526001600160a01b0398891660208b015296909716958801959095526060870193909352608086019190915260a0850152151560c0840152151560e083015215156101008201526101200161012e565b3480156102bf57600080fd5b5061016e6102ce366004611760565b610fa4565b3480156102df57600080fd5b5061025d6102ee366004611747565b6003602081905260009182526040909120805460018201546002830154938301546004840154600585015460069095015493956001600160a01b03938416959316939192909160ff808216916101008104821691620100009091041689565b34801561035957600080fd5b5061016e610368366004611747565b61112f565b34801561037957600080fd5b5061014c6111a3565b34801561038e57600080fd5b506103a261039d366004611623565b611203565b60405161012e9493929190611813565b3480156103be57600080fd5b5061012460065481565b3480156103d457600080fd5b506104096103e3366004611623565b6001600160a01b0316600090815260208190526040902060058101546006909101549091565b6040805192835260208301919091520161012e565b34801561042a57600080fd5b5061043e610439366004611623565b6112cd565b60405161012e979695949392919061184e565b34801561045d57600080fd5b50600554610471906001600160a01b031681565b6040516001600160a01b03909116815260200161012e565b34801561049557600080fd5b5061016e6104a43660046118ab565b611427565b3360009081526001602090815260409182902060030180548351818402810184019094528084526060939283018282801561050357602002820191906000526020600020905b8154815260200190600101908083116104ef575b5050505050905090565b6005546001600160a01b0316331461056c5760405162461bcd60e51b815260206004820181905260248201527f4f6e6c7920706c6174666f726d206f776e65722063616e20776974686472617760448201526064015b60405180910390fd5b6005546040516001600160a01b03909116904780156108fc02916000818181858888f193505050501580156105a5573d6000803e3d6000fd5b50565b3360009081526001602052604090206002015460ff166106035760405162461bcd60e51b815260206004820152601660248201527514dd1d59195b9d081b9bdd081c9959da5cdd195c995960521b6044820152606401610563565b6001600160a01b03811660009081526020819052604090206004015460ff166106655760405162461bcd60e51b81526020600482015260146024820152734d656e746f72206e6f7420617661696c61626c6560601b6044820152606401610563565b6001600160a01b0381166000908152602081905260409020600301543410156106c75760405162461bcd60e51b8152602060048201526014602482015273125b9cdd59999a58da595b9d081c185e5b595b9d60621b6044820152606401610563565b60068054600091826106d8836118eb565b909155506040516bffffffffffffffffffffffff19606085811b8216602084015233901b1660348201524260488201529091506000906068016040516020818303038152906040528051906020012090506000604051806101200160405280848152602001856001600160a01b03168152602001336001600160a01b03168152602001428152602001610e10815260200134815260200160011515815260200160011515815260200160001515815250905080600260008581526020019081526020016000206000820151816000015560208201518160010160006101000a8154816001600160a01b0302191690836001600160a01b0316021790555060408201518160020160006101000a8154816001600160a01b0302191690836001600160a01b03160217905550606082015181600301556080820151816004015560a0820151816005015560c08201518160060160006101000a81548160ff02191690831515021790555060e08201518160060160016101000a81548160ff0219169083151502179055506101008201518160060160026101000a81548160ff02191690831515021790555090505080600360008481526020019081526020016000206000820151816000015560208201518160010160006101000a8154816001600160a01b0302191690836001600160a01b0316021790555060408201518160020160006101000a8154816001600160a01b0302191690836001600160a01b03160217905550606082015181600301556080820151816004015560a0820151816005015560c08201518160060160006101000a81548160ff02191690831515021790555060e08201518160060160016101000a81548160ff0219169083151502179055506101008201518160060160026101000a81548160ff021916908315150217905550905050600080856001600160a01b03166001600160a01b0316815260200190815260200160002060070183908060018154018082558091505060019003906000526020600020016000909190919091505560016000336001600160a01b03166001600160a01b031681526020019081526020016000206003018390806001815401808255809150506001900390600052602060002001600090919091909150558360016000336001600160a01b03166001600160a01b0316815260200190815260200160002060020160016101000a8154816001600160a01b0302191690836001600160a01b031602179055506000806000866001600160a01b03166001600160a01b0316815260200190815260200160002060040160006101000a81548160ff021916908315150217905550336001600160a01b0316846001600160a01b03167fe815557aeb6b29e573802700217f15282503c9eb1bc96942e7bf8416674ae3d242604051610aed91815260200190565b60405180910390a350505050565b336000908152602081905260409020546001600160a01b0316610b5a5760405162461bcd60e51b81526020600482015260176024820152762737ba1030903932b3b4b9ba32b932b21036b2b73a37b960491b6044820152606401610563565b336000908152602081905260409020600401805460ff1916911515919091179055565b3360009081526001602052604090206002015460ff1615610be05760405162461bcd60e51b815260206004820152601a60248201527f53747564656e7420616c726561647920726567697374657265640000000000006044820152606401610563565b6040805160a081018252338082526020808301858152600184860181905260006060808701829052608087018190529481529281905294909120835181546001600160a01b0319166001600160a01b0390911617815590519193909190820190610c4a908261198d565b50604082015160028201805460608501516001600160a01b031661010002610100600160a81b0319931515939093166001600160a81b03199091161791909117905560808201518051610ca7916003840191602090910190611563565b50506040513391507fc1b20826100814ba286ac576fe980df1dbbcef3d904bb81f3d69a0e8280dc11490610cdc908590611a4d565b60405180910390a25050565b336000818152602081905260409020546001600160a01b031614610d4e5760405162461bcd60e51b815260206004820152601b60248201527f4f6e6c79206d656e746f722063616e20656e642073657373696f6e00000000006044820152606401610563565b6040516bffffffffffffffffffffffff1933606090811b8216602084015283901b16603482015242604882015260009060680160408051601f19818403018152918152815160209283012060008181526003909352912060068101549192509060ff16610df25760405162461bcd60e51b815260206004820152601260248201527153657373696f6e206e6f742061637469766560701b6044820152606401610563565b60068101805462ff00ff191662010000179055336000908152602081815260408083206004908101805460ff191660019081179091556001600160a01b038816855290925282206002018054610100600160a81b031916905560058301549054909190606490610e629084611a60565b610e6c9190611a7d565b90506000610e7a8284611a9f565b6005546040519192506001600160a01b03169083156108fc029084906000818181858888f19350505050158015610eb5573d6000803e3d6000fd5b50336000908152602081905260408082205490516001600160a01b03909116916108fc841502918491818181858888f19350505050158015610efb573d6000803e3d6000fd5b506040514281526001600160a01b0387169033907f6f166dbd15d5a0c6c32410896bf20d4f807858612d0a10a425ecbfcee64419049060200160405180910390a383546040517fa4030ee788364ad2db0b246a828edf422efb9e2f4a839c21723971d808b4323c90600090a283546040518481527feee6595b95458aeb5d6b0f0f282dcb44a1378b4547bfe73681dfc0b012985e909060200160405180910390a2505050505050565b3360009081526020819052604090206004015460ff16156110075760405162461bcd60e51b815260206004820152601960248201527f4d656e746f7220616c72656164792072656769737465726564000000000000006044820152606401610563565b60408051610100810182523380825260208083018781528385018790526060808501879052600160808601819052600060a0870181905260c0870181905260e087018390529485529284905294909220835181546001600160a01b0319166001600160a01b03909116178155915190820190611083908261198d565b5060408201516002820190611098908261198d565b5060608201516003820155608082015160048201805460ff191691151591909117905560a0820151600582015560c0820151600682015560e082015180516110ea916007840191602090910190611563565b50506040513391507fc14e42bf83a73674998a153215f928d3b78dd41101d83cac9ca5ea8f8844ff63906111219087908790611ab2565b60405180910390a250505050565b336000908152602081905260409020546001600160a01b031661118e5760405162461bcd60e51b81526020600482015260176024820152762737ba1030903932b3b4b9ba32b932b21036b2b73a37b960491b6044820152606401610563565b33600090815260208190526040902060030155565b336000908152602081815260409182902060070180548351818402810184019094528084526060939283018282801561050357602002820191906000526020600020908154815260200190600101908083116104ef575050505050905090565b6001602081905260009182526040909120805491810180546001600160a01b039093169261123090611904565b80601f016020809104026020016040519081016040528092919081815260200182805461125c90611904565b80156112a95780601f1061127e576101008083540402835291602001916112a9565b820191906000526020600020905b81548152906001019060200180831161128c57829003601f168201915b5050506002909301549192505060ff8116906001600160a01b036101009091041684565b600060208190529081526040902080546001820180546001600160a01b0390921692916112f990611904565b80601f016020809104026020016040519081016040528092919081815260200182805461132590611904565b80156113725780601f1061134757610100808354040283529160200191611372565b820191906000526020600020905b81548152906001019060200180831161135557829003601f168201915b50505050509080600201805461138790611904565b80601f01602080910402602001604051908101604052809291908181526020018280546113b390611904565b80156114005780601f106113d557610100808354040283529160200191611400565b820191906000526020600020905b8154815290600101906020018083116113e357829003601f168201915b505050506003830154600484015460058501546006909501549394919360ff909116925087565b60018110158015611439575060058111155b6114855760405162461bcd60e51b815260206004820152601e60248201527f526174696e67206d757374206265206265747765656e203120616e64203500006044820152606401610563565b3360009081526001602052604090206002015460ff166114f15760405162461bcd60e51b815260206004820152602160248201527f4f6e6c7920726567697374657265642073747564656e74732063616e207261746044820152606560f81b6064820152608401610563565b6001600160a01b03821660009081526020819052604090206006810154611519906001611ae0565b828260060154836005015461152e9190611a60565b6115389190611ae0565b6115429190611a7d565b6005820155600681018054906000611559836118eb565b9190505550505050565b82805482825590600052602060002090810192821561159e579160200282015b8281111561159e578251825591602001919060010190611583565b506115aa9291506115ae565b5090565b5b808211156115aa57600081556001016115af565b6020808252825182820181905260009190848201906040850190845b818110156115fb578351835292840192918401916001016115df565b50909695505050505050565b80356001600160a01b038116811461161e57600080fd5b919050565b60006020828403121561163557600080fd5b61163e82611607565b9392505050565b60006020828403121561165757600080fd5b8135801515811461163e57600080fd5b634e487b7160e01b600052604160045260246000fd5b600082601f83011261168e57600080fd5b813567ffffffffffffffff808211156116a9576116a9611667565b604051601f8301601f19908116603f011681019082821181831017156116d1576116d1611667565b816040528381528660208588010111156116ea57600080fd5b836020870160208301376000602085830101528094505050505092915050565b60006020828403121561171c57600080fd5b813567ffffffffffffffff81111561173357600080fd5b61173f8482850161167d565b949350505050565b60006020828403121561175957600080fd5b5035919050565b60008060006060848603121561177557600080fd5b833567ffffffffffffffff8082111561178d57600080fd5b6117998783880161167d565b945060208601359150808211156117af57600080fd5b506117bc8682870161167d565b925050604084013590509250925092565b6000815180845260005b818110156117f3576020818501810151868301820152016117d7565b506000602082860101526020601f19601f83011685010191505092915050565b600060018060a01b0380871683526080602084015261183560808401876117cd565b9415156040840152929092166060909101525092915050565b6001600160a01b038816815260e060208201819052600090611872908301896117cd565b828103604084015261188481896117cd565b60608401979097525050921515608084015260a083019190915260c0909101529392505050565b600080604083850312156118be57600080fd5b6118c783611607565b946020939093013593505050565b634e487b7160e01b600052601160045260246000fd5b6000600182016118fd576118fd6118d5565b5060010190565b600181811c9082168061191857607f821691505b60208210810361193857634e487b7160e01b600052602260045260246000fd5b50919050565b601f82111561198857600081815260208120601f850160051c810160208610156119655750805b601f850160051c820191505b8181101561198457828155600101611971565b5050505b505050565b815167ffffffffffffffff8111156119a7576119a7611667565b6119bb816119b58454611904565b8461193e565b602080601f8311600181146119f057600084156119d85750858301515b600019600386901b1c1916600185901b178555611984565b600085815260208120601f198616915b82811015611a1f57888601518255948401946001909101908401611a00565b5085821015611a3d5787850151600019600388901b60f8161c191681555b5050505050600190811b01905550565b60208152600061163e60208301846117cd565b8082028115828204841417611a7757611a776118d5565b92915050565b600082611a9a57634e487b7160e01b600052601260045260246000fd5b500490565b81810381811115611a7757611a776118d5565b604081526000611ac560408301856117cd565b8281036020840152611ad781856117cd565b95945050505050565b80820180821115611a7757611a776118d556fea26469706673582212200ddcae0541983abe8242a9981450661843a9927ba2e04cd0f928f816a3396f6f64736f6c63430008130033",
  "linkReferences": {},
  "deployedLinkReferences": {}
}